{
  "transactions": [
    {
      "hash": "0xf7bb4fc53cd3f58a9bd00cec9e88f7e0d27bfeddbd26331fa33828589abc15e9",
      "transactionType": "CALL",
      "contractName": null,
      "contractAddress": "0x0165878a594ca255338adfa4d48449f69242eb8f",
      "function": "transfer(address,uint256)",
      "arguments": [
        "0x70997970C51812dc3A010C7d01b50e0d17dc79C8",
        "1000000000000000000000"
      ],
      "transaction": {
        "from": "0xf39fd6e51aad88f6f4ce6ab8827279cfffb92266",
        "to": "0x0165878a594ca255338adfa4d48449f69242eb8f",
        "gas": "0x129e5",
        "value": "0x0",
        "input": "0xa9059cbb00000000000000000000000070997970c51812dc3a010c7d01b50e0d17dc79c800000000000000000000000000000000000000000000003635c9adc5dea00000",
        "nonce": "0xc",
        "chainId": "0x7a69"
      },
      "additionalContracts": [],
      "isFixedGasLimit": false
    },
    {
      "hash": "0xaa011e00c63dd154a934d23a405caa5c98e5b1bb04b030ce5838eba607ebcab2",
      "transactionType": "CALL",
      "contractName": null,
      "contractAddress": "0x610178da211fef7d417bc0e6fed39f05609ad788",
      "function": "grantRole(bytes32,address)",
      "arguments": [
        "0x97667070c54ef182b0f5858b034beac1b6f3089aa2d3188bb1e8929f4fa9b929",
        "0xf39Fd6e51aad88F6F4ce6aB8827279cffFb92266"
      ],
      "transaction": {
        "from": "0xf39fd6e51aad88f6f4ce6ab8827279cfffb92266",
        "to": "0x610178da211fef7d417bc0e6fed39f05609ad788",
        "gas": "0xa076",
        "value": "0x0",
        "input": "0x2f2ff15d97667070c54ef182b0f5858b034beac1b6f3089aa2d3188bb1e8929f4fa9b929000000000000000000000000f39fd6e51aad88f6f4ce6ab8827279cfffb92266",
        "nonce": "0xd",
        "chainId": "0x7a69"
      },
      "additionalContracts": [],
      "isFixedGasLimit": false
    },
    {
      "hash": "0x479020a26562ceb6183d0313d0fa96ae1b971e2b6090d57661780640ea88ac5a",
      "transactionType": "CALL",
      "contractName": null,
      "contractAddress": "0x610178da211fef7d417bc0e6fed39f05609ad788",
      "function": "grantRole(bytes32,address)",
      "arguments": [
        "0x9f2df0fed2c77648de5860a4cc508cd0818c85b8b8a1ab4ceeef8d981c8956a6",
        "0xf39Fd6e51aad88F6F4ce6aB8827279cffFb92266"
      ],
      "transaction": {
        "from": "0xf39fd6e51aad88f6f4ce6ab8827279cfffb92266",
        "to": "0x610178da211fef7d417bc0e6fed39f05609ad788",
        "gas": "0x1294f",
        "value": "0x0",
        "input": "0x2f2ff15d9f2df0fed2c77648de5860a4cc508cd0818c85b8b8a1ab4ceeef8d981c8956a6000000000000000000000000f39fd6e51aad88f6f4ce6ab8827279cfffb92266",
        "nonce": "0xe",
        "chainId": "0x7a69"
      },
      "additionalContracts": [],
      "isFixedGasLimit": false
    },
    {
      "hash": "0x857d6f8476a49ccd5ca8135826cd1d235b2f22a8f76f65d2778a9c4de4476736",
      "transactionType": "CALL",
      "contractName": null,
      "contractAddress": "0x610178da211fef7d417bc0e6fed39f05609ad788",
      "function": "setWhitelist(address,bool)",
      "arguments": [
        "0xf39Fd6e51aad88F6F4ce6aB8827279cffFb92266",
        "true"
      ],
      "transaction": {
        "from": "0xf39fd6e51aad88f6f4ce6ab8827279cfffb92266",
        "to": "0x610178da211fef7d417bc0e6fed39f05609ad788",
        "gas": "0x115b2",
        "value": "0x0",
        "input": "0x53d6fd59000000000000000000000000f39fd6e51aad88f6f4ce6ab8827279cfffb922660000000000000000000000000000000000000000000000000000000000000001",
        "nonce": "0xf",
        "chainId": "0x7a69"
      },
      "additionalContracts": [],
      "isFixedGasLimit": false
    },
    {
      "hash": "0x7d081141a2927a4a236d2b5d78007a95f4fc4fa9a61b96257789a94845bddf9d",
      "transactionType": "CALL",
      "contractName": null,
      "contractAddress": "0x610178da211fef7d417bc0e6fed39f05609ad788",
      "function": "mint(address,uint256)",
      "arguments": [
        "0xf39Fd6e51aad88F6F4ce6aB8827279cffFb92266",
        "500000000000000000000"
      ],
      "transaction": {
        "from": "0xf39fd6e51aad88f6f4ce6ab8827279cfffb92266",
        "to": "0x610178da211fef7d417bc0e6fed39f05609ad788",
        "gas": "0x7efa5",
        "value": "0x0",
        "input": "0x40c10f19000000000000000000000000f39fd6e51aad88f6f4ce6ab8827279cfffb9226600000000000000000000000000000000000000000000001b1ae4d6e2ef500000",
        "nonce": "0x10",
        "chainId": "0x7a69"
      },
      "additionalContracts": [],
      "isFixedGasLimit": false
    },
    {
      "hash": "0x993955fec78e84eb1250c6e056b5ab6c25497947314964bce403aae247b9998a",
      "transactionType": "CALL",
      "contractName": null,
      "contractAddress": "0x0165878a594ca255338adfa4d48449f69242eb8f",
      "function": "burn(uint256)",
      "arguments": [
        "200000000000000000000"
      ],
      "transaction": {
        "from": "0xf39fd6e51aad88f6f4ce6ab8827279cfffb92266",
        "to": "0x0165878a594ca255338adfa4d48449f69242eb8f",
        "gas": "0xc0ed",
        "value": "0x0",
        "input": "0x42966c6800000000000000000000000000000000000000000000000ad78ebc5ac6200000",
        "nonce": "0x11",
        "chainId": "0x7a69"
      },
      "additionalContracts": [],
      "isFixedGasLimit": false
    },
    {
      "hash": "0x7969fdbe5781600bdf3e68ee2823b9d5e9f22b98e8fccac44aadfcff5b4bf919",
      "transactionType": "CALL",
      "contractName": null,
      "contractAddress": "0x2279b7a0a67db372996a5fab50d91eaa73d2ebe6",
      "function": "setPrice(uint256)",
      "arguments": [
        "105000000"
      ],
      "transaction": {
        "from": "0xf39fd6e51aad88f6f4ce6ab8827279cfffb92266",
        "to": "0x2279b7a0a67db372996a5fab50d91eaa73d2ebe6",
        "gas": "0xa14a",
        "value": "0x0",
        "input": "0x91b7f5ed0000000000000000000000000000000000000000000000000000000006422c40",
        "nonce": "0x12",
        "chainId": "0x7a69"
      },
      "additionalContracts": [],
      "isFixedGasLimit": false
    },
    {
      "hash": "0x8b9607dd03dcec2bd10cf207a940d760418c3656cc42dcb637ae14085964b526",
      "transactionType": "CALL",
      "contractName": null,
      "contractAddress": "0x2279b7a0a67db372996a5fab50d91eaa73d2ebe6",
      "function": "setPrice(uint256)",
      "arguments": [
        "100000000"
      ],
      "transaction": {
        "from": "0xf39fd6e51aad88f6f4ce6ab8827279cfffb92266",
        "to": "0x2279b7a0a67db372996a5fab50d91eaa73d2ebe6",
        "gas": "0x9843",
        "value": "0x0",
        "input": "0x91b7f5ed0000000000000000000000000000000000000000000000000000000005f5e100",
        "nonce": "0x13",
        "chainId": "0x7a69"
      },
      "additionalContracts": [],
      "isFixedGasLimit": false
    },
    {
      "hash": "0x9ac222317444b09891e3326495ccdf6de4adf8924f3b4fe12d136c46ca89e112",
      "transactionType": "CALL",
      "contractName": null,
      "contractAddress": "0x0165878a594ca255338adfa4d48449f69242eb8f",
      "function": "toggleMinting()",
      "arguments": [],
      "transaction": {
        "from": "0xf39fd6e51aad88f6f4ce6ab8827279cfffb92266",
        "to": "0x0165878a594ca255338adfa4d48449f69242eb8f",
        "gas": "0xa30d",
        "value": "0x0",
        "input": "0x7d55094d",
        "nonce": "0x14",
        "chainId": "0x7a69"
      },
      "additionalContracts": [],
      "isFixedGasLimit": false
    },
    {
      "hash": "0x2d349eab55ee96b68cce52541f59a4f64820983f8c6c9ffe5f4b5dde8582e318",
      "transactionType": "CALL",
      "contractName": null,
      "contractAddress": "0x0165878a594ca255338adfa4d48449f69242eb8f",
      "function": "toggleMinting()",
      "arguments": [],
      "transaction": {
        "from": "0xf39fd6e51aad88f6f4ce6ab8827279cfffb92266",
        "to": "0x0165878a594ca255338adfa4d48449f69242eb8f",
        "gas": "0xa30d",
        "value": "0x0",
        "input": "0x7d55094d",
        "nonce": "0x15",
        "chainId": "0x7a69"
      },
      "additionalContracts": [],
      "isFixedGasLimit": false
    }
  ],
  "receipts": [
    {
      "status": "0x1",
      "cumulativeGasUsed": "0xcbb1",
      "logs": [
        {
          "address": "0x0165878a594ca255338adfa4d48449f69242eb8f",
          "topics": [
            "0xddf252ad1be2c89b69c2b068fc378daa952ba7f163c4a11628f55a4df523b3ef",
            "0x000000000000000000000000f39fd6e51aad88f6f4ce6ab8827279cfffb92266",
            "0x00000000000000000000000070997970c51812dc3a010c7d01b50e0d17dc79c8"
          ],
          "data": "0x00000000000000000000000000000000000000000000003635c9adc5dea00000",
          "blockHash": "0xd9c0390e0cd38ab790386f57eb4e5c13423e0690168c9fb21dbee5273cfc44de",
          "blockNumber": "0x6",
          "blockTimestamp": "0x68c87a24",
          "transactionHash": "0xf7bb4fc53cd3f58a9bd00cec9e88f7e0d27bfeddbd26331fa33828589abc15e9",
          "transactionIndex": "0x0",
          "logIndex": "0x0",
          "removed": false
        }
      ],
      "logsBloom": "0x00000000000000000002000000000000000000000000000000000000000000000000000000000000000000000000000000000000000000000000000000000000001000000000000000000008000000000000000000000000000000000000000000000800000000000000000100000000000000000000000000000010000000040000000000000000000000000000000000000000000000000000000000000000000000000000000000000000000000000000000000000000000000000000000000000006000000200000000000000000000000002000000000000000000000000000000000000000000000000000000001000000000000000000000000000000",
      "type": "0x2",
      "transactionHash": "0xf7bb4fc53cd3f58a9bd00cec9e88f7e0d27bfeddbd26331fa33828589abc15e9",
      "transactionIndex": "0x0",
      "blockHash": "0xd9c0390e0cd38ab790386f57eb4e5c13423e0690168c9fb21dbee5273cfc44de",
      "blockNumber": "0x6",
      "gasUsed": "0xcbb1",
      "effectiveGasPrice": "0x239acbc3",
      "blobGasPrice": "0x1",
      "from": "0xf39fd6e51aad88f6f4ce6ab8827279cfffb92266",
      "to": "0x0165878a594ca255338adfa4d48449f69242eb8f",
      "contractAddress": null
    },
    {
      "status": "0x1",
      "cumulativeGasUsed": "0x742d",
      "logs": [],
      "logsBloom": "0x00000000000000000000000000000000000000000000000000000000000000000000000000000000000000000000000000000000000000000000000000000000000000000000000000000000000000000000000000000000000000000000000000000000000000000000000000000000000000000000000000000000000000000000000000000000000000000000000000000000000000000000000000000000000000000000000000000000000000000000000000000000000000000000000000000000000000000000000000000000000000000000000000000000000000000000000000000000000000000000000000000000000000000000000000000000",
      "type": "0x2",
      "transactionHash": "0xaa011e00c63dd154a934d23a405caa5c98e5b1bb04b030ce5838eba607ebcab2",
      "transactionIndex": "0x0",
      "blockHash": "0xe6da2a8abcbfd4883c15a5b6db7b8bbc28f1f2d307ec392e456877899cc36550",
      "blockNumber": "0x7",
      "gasUsed": "0x742d",
      "effectiveGasPrice": "0x1f2b6840",
      "blobGasPrice": "0x1",
      "from": "0xf39fd6e51aad88f6f4ce6ab8827279cfffb92266",
      "to": "0x610178da211fef7d417bc0e6fed39f05609ad788",
      "contractAddress": null
    },
    {
      "status": "0x1",
      "cumulativeGasUsed": "0xcb4a",
      "logs": [
        {
          "address": "0x610178da211fef7d417bc0e6fed39f05609ad788",
          "topics": [
            "0x2f8788117e7eff1d82e926ec794901d17c78024a50270940304540a733656f0d",
            "0x9f2df0fed2c77648de5860a4cc508cd0818c85b8b8a1ab4ceeef8d981c8956a6",
            "0x000000000000000000000000f39fd6e51aad88f6f4ce6ab8827279cfffb92266",
            "0x000000000000000000000000f39fd6e51aad88f6f4ce6ab8827279cfffb92266"
          ],
          "data": "0x",
          "blockHash": "0x9f0f5723eaa71ca189b80c677bc924196d1d98127807b4a4c8ecf5f960bc2102",
          "blockNumber": "0x8",
          "blockTimestamp": "0x68c87a24",
          "transactionHash": "0x479020a26562ceb6183d0313d0fa96ae1b971e2b6090d57661780640ea88ac5a",
          "transactionIndex": "0x0",
          "logIndex": "0x0",
          "removed": false
        }
      ],
      "logsBloom": "0x00000004000000000000000000000000000000000000000000000000000000000000000000000400000000000000004000000000000000000000000000000000000000000000000000000000000000000000000000000000000000020000000000000000000000000000000100000000000000000000000040000000001000000000000000000000000000000000000000000000000000000000000000000000000000000000000000000000000000000000000000000000001000000000000000000000000000200000000000000000001000002000000100000000000000000000000000000000000000000000000000000000000000000000000000000000",
      "type": "0x2",
      "transactionHash": "0x479020a26562ceb6183d0313d0fa96ae1b971e2b6090d57661780640ea88ac5a",
      "transactionIndex": "0x0",
      "blockHash": "0x9f0f5723eaa71ca189b80c677bc924196d1d98127807b4a4c8ecf5f960bc2102",
      "blockNumber": "0x8",
      "gasUsed": "0xcb4a",
      "effectiveGasPrice": "0x1b47f57f",
      "blobGasPrice": "0x1",
      "from": "0xf39fd6e51aad88f6f4ce6ab8827279cfffb92266",
      "to": "0x610178da211fef7d417bc0e6fed39f05609ad788",
      "contractAddress": null
    },
    {
      "status": "0x1",
      "cumulativeGasUsed": "0x1892b",
      "logs": [
        {
          "address": "0x610178da211fef7d417bc0e6fed39f05609ad788",
          "topics": [
            "0xf93f9a76c1bf3444d22400a00cb9fe990e6abe9dbb333fda48859cfee864543d",
            "0x000000000000000000000000f39fd6e51aad88f6f4ce6ab8827279cfffb92266"
          ],
          "data": "0x0000000000000000000000000000000000000000000000000000000000000001",
          "blockHash": "0x9f0f5723eaa71ca189b80c677bc924196d1d98127807b4a4c8ecf5f960bc2102",
          "blockNumber": "0x8",
          "blockTimestamp": "0x68c87a24",
          "transactionHash": "0x857d6f8476a49ccd5ca8135826cd1d235b2f22a8f76f65d2778a9c4de4476736",
          "transactionIndex": "0x1",
          "logIndex": "0x1",
          "removed": false
        }
      ],
      "logsBloom": "0x00000000000000000000000000000000000000000000000000000000000000000000000000000400000000000000000000000000000000000000000000000000000000000000000000000000000000000000000000000000000000020000000000000001000000000000000100000000000000000000000040000000000000000000000000000000000000000000000000000000000000000000000000000000000000000000000000000000000000000000000000000000000000000000000000000000000000200000000000000000000000002000000000000000000000000000000000000000000000000000040000000000002000000000000000000000",
      "type": "0x2",
      "transactionHash": "0x857d6f8476a49ccd5ca8135826cd1d235b2f22a8f76f65d2778a9c4de4476736",
      "transactionIndex": "0x1",
      "blockHash": "0x9f0f5723eaa71ca189b80c677bc924196d1d98127807b4a4c8ecf5f960bc2102",
      "blockNumber": "0x8",
      "gasUsed": "0xbde1",
      "effectiveGasPrice": "0x1b47f57f",
      "blobGasPrice": "0x1",
      "from": "0xf39fd6e51aad88f6f4ce6ab8827279cfffb92266",
      "to": "0x610178da211fef7d417bc0e6fed39f05609ad788",
      "contractAddress": null
    },
    {
      "status": "0x1",
      "cumulativeGasUsed": "0x7480b",
      "logs": [
        {
          "address": "0x0165878a594ca255338adfa4d48449f69242eb8f",
          "topics": [
            "0xddf252ad1be2c89b69c2b068fc378daa952ba7f163c4a11628f55a4df523b3ef",
            "0x0000000000000000000000000000000000000000000000000000000000000000",
            "0x000000000000000000000000f39fd6e51aad88f6f4ce6ab8827279cfffb92266"
          ],
          "data": "0x00000000000000000000000000000000000000000000001b1061a8a65df44000",
          "blockHash": "0x9f0f5723eaa71ca189b80c677bc924196d1d98127807b4a4c8ecf5f960bc2102",
          "blockNumber": "0x8",
          "blockTimestamp": "0x68c87a24",
          "transactionHash": "0x7d081141a2927a4a236d2b5d78007a95f4fc4fa9a61b96257789a94845bddf9d",
          "transactionIndex": "0x2",
          "logIndex": "0x2",
          "removed": false
        },
        {
          "address": "0x0165878a594ca255338adfa4d48449f69242eb8f",
          "topics": [
            "0x0f6798a560793a54c3bcfe86a93cde1e73087d944c0ea20544137d4121396885",
            "0x000000000000000000000000f39fd6e51aad88f6f4ce6ab8827279cfffb92266"
          ],
          "data": "0x00000000000000000000000000000000000000000000001b1061a8a65df44000",
          "blockHash": "0x9f0f5723eaa71ca189b80c677bc924196d1d98127807b4a4c8ecf5f960bc2102",
          "blockNumber": "0x8",
          "blockTimestamp": "0x68c87a24",
          "transactionHash": "0x7d081141a2927a4a236d2b5d78007a95f4fc4fa9a61b96257789a94845bddf9d",
          "transactionIndex": "0x2",
          "logIndex": "0x3",
          "removed": false
        },
        {
          "address": "0x0165878a594ca255338adfa4d48449f69242eb8f",
          "topics": [
            "0xddf252ad1be2c89b69c2b068fc378daa952ba7f163c4a11628f55a4df523b3ef",
            "0x0000000000000000000000000000000000000000000000000000000000000000",
            "0x000000000000000000000000f39fd6e51aad88f6f4ce6ab8827279cfffb92266"
          ],
          "data": "0x0000000000000000000000000000000000000000000000000a832e3c915bc000",
          "blockHash": "0x9f0f5723eaa71ca189b80c677bc924196d1d98127807b4a4c8ecf5f960bc2102",
          "blockNumber": "0x8",
          "blockTimestamp": "0x68c87a24",
          "transactionHash": "0x7d081141a2927a4a236d2b5d78007a95f4fc4fa9a61b96257789a94845bddf9d",
          "transactionIndex": "0x2",
          "logIndex": "0x4",
          "removed": false
        },
        {
          "address": "0x0165878a594ca255338adfa4d48449f69242eb8f",
          "topics": [
            "0x0f6798a560793a54c3bcfe86a93cde1e73087d944c0ea20544137d4121396885",
            "0x000000000000000000000000f39fd6e51aad88f6f4ce6ab8827279cfffb92266"
          ],
          "data": "0x0000000000000000000000000000000000000000000000000a832e3c915bc000",
          "blockHash": "0x9f0f5723eaa71ca189b80c677bc924196d1d98127807b4a4c8ecf5f960bc2102",
          "blockNumber": "0x8",
          "blockTimestamp": "0x68c87a24",
          "transactionHash": "0x7d081141a2927a4a236d2b5d78007a95f4fc4fa9a61b96257789a94845bddf9d",
          "transactionIndex": "0x2",
          "logIndex": "0x5",
          "removed": false
        },
        {
          "address": "0x610178da211fef7d417bc0e6fed39f05609ad788",
          "topics": [
            "0x25b428dfde728ccfaddad7e29e4ac23c24ed7fd1a6e3e3f91894a9a073f5dfff",
            "0x000000000000000000000000f39fd6e51aad88f6f4ce6ab8827279cfffb92266"
          ],
          "data": "0x00000000000000000000000000000000000000000000001b1061a8a65df440000000000000000000000000000000000000000000000000000a832e3c915bc000",
          "blockHash": "0x9f0f5723eaa71ca189b80c677bc924196d1d98127807b4a4c8ecf5f960bc2102",
          "blockNumber": "0x8",
          "blockTimestamp": "0x68c87a24",
          "transactionHash": "0x7d081141a2927a4a236d2b5d78007a95f4fc4fa9a61b96257789a94845bddf9d",
          "transactionIndex": "0x2",
          "logIndex": "0x6",
          "removed": false
        }
      ],
      "logsBloom": "0x00000000000000000000000000000000000000000000000000000000000000000000001000000400000000000000000000000000000000000000000000000000001000000020000000000008000000000000000000000000000000020000000000000000020000000000000100000800000000000000400040000010000000040000000000000000000000000000000000000000000000000000000000000000000080000000000000000000000000000000000000000000000000000000000000000006000000200000000000000000000000002000000000000000100020000000000000020000000000000000000000000000000000000000000000000000",
      "type": "0x2",
      "transactionHash": "0x7d081141a2927a4a236d2b5d78007a95f4fc4fa9a61b96257789a94845bddf9d",
      "transactionIndex": "0x2",
      "blockHash": "0x9f0f5723eaa71ca189b80c677bc924196d1d98127807b4a4c8ecf5f960bc2102",
      "blockNumber": "0x8",
      "gasUsed": "0x5bee0",
      "effectiveGasPrice": "0x1b47f57f",
      "blobGasPrice": "0x1",
      "from": "0xf39fd6e51aad88f6f4ce6ab8827279cfffb92266",
      "to": "0x610178da211fef7d417bc0e6fed39f05609ad788",
      "contractAddress": null
    },
    {
      "status": "0x1",
      "cumulativeGasUsed": "0x7d3b9",
      "logs": [
        {
          "address": "0x0165878a594ca255338adfa4d48449f69242eb8f",
          "topics": [
            "0xddf252ad1be2c89b69c2b068fc378daa952ba7f163c4a11628f55a4df523b3ef",
            "0x000000000000000000000000f39fd6e51aad88f6f4ce6ab8827279cfffb92266",
            "0x0000000000000000000000000000000000000000000000000000000000000000"
          ],
          "data": "0x00000000000000000000000000000000000000000000000ad78ebc5ac6200000",
          "blockHash": "0x9f0f5723eaa71ca189b80c677bc924196d1d98127807b4a4c8ecf5f960bc2102",
          "blockNumber": "0x8",
          "blockTimestamp": "0x68c87a24",
          "transactionHash": "0x993955fec78e84eb1250c6e056b5ab6c25497947314964bce403aae247b9998a",
          "transactionIndex": "0x3",
          "logIndex": "0x7",
          "removed": false
        },
        {
          "address": "0x0165878a594ca255338adfa4d48449f69242eb8f",
          "topics": [
            "0xcc16f5dbb4873280815c1ee09dbd06736cffcc184412cf7a71a0fdb75d397ca5",
            "0x000000000000000000000000f39fd6e51aad88f6f4ce6ab8827279cfffb92266"
          ],
          "data": "0x00000000000000000000000000000000000000000000000ad78ebc5ac6200000",
          "blockHash": "0x9f0f5723eaa71ca189b80c677bc924196d1d98127807b4a4c8ecf5f960bc2102",
          "blockNumber": "0x8",
          "blockTimestamp": "0x68c87a24",
          "transactionHash": "0x993955fec78e84eb1250c6e056b5ab6c25497947314964bce403aae247b9998a",
          "transactionIndex": "0x3",
          "logIndex": "0x8",
          "removed": false
        }
      ],
      "logsBloom": "0x00000000000000000000000000000000000000000000001000000000000000000000000000000000000000000000000000000000000000000000000000000000001000000000000000000008000000000000000000000000000000000000000000000000020000000000000100000800080000000000000000000010000000040000000000000000000000000000000000000000000000000000000000200000000000000000000000000000000000000000000000000000000000000000000000000006000000200000000000000000000000002000000000000000000020000000000000000000000000000000000000000000000000000000000000000000",
      "type": "0x2",
      "transactionHash": "0x993955fec78e84eb1250c6e056b5ab6c25497947314964bce403aae247b9998a",
      "transactionIndex": "0x3",
      "blockHash": "0x9f0f5723eaa71ca189b80c677bc924196d1d98127807b4a4c8ecf5f960bc2102",
      "blockNumber": "0x8",
      "gasUsed": "0x8bae",
      "effectiveGasPrice": "0x1b47f57f",
      "blobGasPrice": "0x1",
      "from": "0xf39fd6e51aad88f6f4ce6ab8827279cfffb92266",
      "to": "0x0165878a594ca255338adfa4d48449f69242eb8f",
      "contractAddress": null
    },
    {
      "status": "0x1",
      "cumulativeGasUsed": "0x84202",
      "logs": [
        {
          "address": "0x2279b7a0a67db372996a5fab50d91eaa73d2ebe6",
          "topics": [
            "0x945c1c4e99aa89f648fbfe3df471b916f719e16d960fcec0737d4d56bd696838"
          ],
          "data": "0x0000000000000000000000000000000000000000000000000000000005f5e1000000000000000000000000000000000000000000000000000000000006422c40",
          "blockHash": "0x9f0f5723eaa71ca189b80c677bc924196d1d98127807b4a4c8ecf5f960bc2102",
          "blockNumber": "0x8",
          "blockTimestamp": "0x68c87a24",
          "transactionHash": "0x7969fdbe5781600bdf3e68ee2823b9d5e9f22b98e8fccac44aadfcff5b4bf919",
          "transactionIndex": "0x4",
          "logIndex": "0x9",
          "removed": false
        }
      ],
      "logsBloom": "0x00000000000000000000000000000000000000000000000000000000000000000000000000000000000000000000000000000000000000000000000000000000000000000000000000000000000000000000000000000000000000000000000000000000000000000000000000000000000000000000000000000000000000000000000000000000000000000000000040000000000040000000000000000000000000000000000000000000000040000000000002000000000000000000008000000000000000000000000000000000000000000000000000004000000000000000000000000000000000000000000000000000000000000000000000000000",
      "type": "0x2",
      "transactionHash": "0x7969fdbe5781600bdf3e68ee2823b9d5e9f22b98e8fccac44aadfcff5b4bf919",
      "transactionIndex": "0x4",
      "blockHash": "0x9f0f5723eaa71ca189b80c677bc924196d1d98127807b4a4c8ecf5f960bc2102",
      "blockNumber": "0x8",
      "gasUsed": "0x6e49",
      "effectiveGasPrice": "0x1b47f57f",
      "blobGasPrice": "0x1",
      "from": "0xf39fd6e51aad88f6f4ce6ab8827279cfffb92266",
      "to": "0x2279b7a0a67db372996a5fab50d91eaa73d2ebe6",
      "contractAddress": null
    },
    {
      "status": "0x1",
      "cumulativeGasUsed": "0x6e3d",
      "logs": [
        {
          "address": "0x2279b7a0a67db372996a5fab50d91eaa73d2ebe6",
          "topics": [
            "0x945c1c4e99aa89f648fbfe3df471b916f719e16d960fcec0737d4d56bd696838"
          ],
          "data": "0x0000000000000000000000000000000000000000000000000000000006422c400000000000000000000000000000000000000000000000000000000005f5e100",
          "blockHash": "0x5657eaf371c67dd9630df100acbc5ac275da2792403aeaa2dbafe02c44a8a8f4",
          "blockNumber": "0x9",
          "blockTimestamp": "0x68c87a24",
          "transactionHash": "0x8b9607dd03dcec2bd10cf207a940d760418c3656cc42dcb637ae14085964b526",
          "transactionIndex": "0x0",
          "logIndex": "0x0",
          "removed": false
        }
      ],
      "logsBloom": "0x00000000000000000000000000000000000000000000000000000000000000000000000000000000000000000000000000000000000000000000000000000000000000000000000000000000000000000000000000000000000000000000000000000000000000000000000000000000000000000000000000000000000000000000000000000000000000000000000040000000000040000000000000000000000000000000000000000000000040000000000002000000000000000000008000000000000000000000000000000000000000000000000000004000000000000000000000000000000000000000000000000000000000000000000000000000",
      "type": "0x2",
      "transactionHash": "0x8b9607dd03dcec2bd10cf207a940d760418c3656cc42dcb637ae14085964b526",
      "transactionIndex": "0x0",
      "blockHash": "0x5657eaf371c67dd9630df100acbc5ac275da2792403aeaa2dbafe02c44a8a8f4",
      "blockNumber": "0x9",
      "gasUsed": "0x6e3d",
      "effectiveGasPrice": "0x17fe7601",
      "blobGasPrice": "0x1",
      "from": "0xf39fd6e51aad88f6f4ce6ab8827279cfffb92266",
      "to": "0x2279b7a0a67db372996a5fab50d91eaa73d2ebe6",
      "contractAddress": null
    },
    {
      "status": "0x1",
      "cumulativeGasUsed": "0x760d",
      "logs": [
        {
          "address": "0x0165878a594ca255338adfa4d48449f69242eb8f",
          "topics": [
            "0x5708b32f825aa2f1192da18d8205d00f2cb633e72d1c5bb33a3111ccc61be8f4"
          ],
          "data": "0x0000000000000000000000000000000000000000000000000000000000000001",
          "blockHash": "0x97b08bc9d494bf5c822d12e64dc7c9c39c1d477e429876f9a35cc2cbc20d7f2e",
          "blockNumber": "0xa",
          "blockTimestamp": "0x68c87a24",
          "transactionHash": "0x9ac222317444b09891e3326495ccdf6de4adf8924f3b4fe12d136c46ca89e112",
          "transactionIndex": "0x0",
          "logIndex": "0x0",
          "removed": false
        }
      ],
      "logsBloom": "0x00000000000000000000000000000000000000000000000000000000000000000000000040000000000000000000000000000000000000000000000000000000001000000000000000000000000000000000000000000000000000000000000000000000000000000000000000000000000000000000000000000000000000040000000000000000000000000000000000000000000000000000000000000000000000000000000000000000100000000000000000000000000000000000000000000004000000000000000000000000000000000000000000000000000000000000000000000000000000000000000000000100000000000000000000000000",
      "type": "0x2",
      "transactionHash": "0x9ac222317444b09891e3326495ccdf6de4adf8924f3b4fe12d136c46ca89e112",
      "transactionIndex": "0x0",
      "blockHash": "0x97b08bc9d494bf5c822d12e64dc7c9c39c1d477e429876f9a35cc2cbc20d7f2e",
      "blockNumber": "0xa",
      "gasUsed": "0x760d",
      "effectiveGasPrice": "0x15001910",
      "blobGasPrice": "0x1",
      "from": "0xf39fd6e51aad88f6f4ce6ab8827279cfffb92266",
      "to": "0x0165878a594ca255338adfa4d48449f69242eb8f",
      "contractAddress": null
    },
    {
      "status": "0x1",
      "cumulativeGasUsed": "0xec1a",
      "logs": [
        {
          "address": "0x0165878a594ca255338adfa4d48449f69242eb8f",
          "topics": [
            "0x5708b32f825aa2f1192da18d8205d00f2cb633e72d1c5bb33a3111ccc61be8f4"
          ],
          "data": "0x0000000000000000000000000000000000000000000000000000000000000000",
          "blockHash": "0x97b08bc9d494bf5c822d12e64dc7c9c39c1d477e429876f9a35cc2cbc20d7f2e",
          "blockNumber": "0xa",
          "blockTimestamp": "0x68c87a24",
          "transactionHash": "0x2d349eab55ee96b68cce52541f59a4f64820983f8c6c9ffe5f4b5dde8582e318",
          "transactionIndex": "0x1",
          "logIndex": "0x1",
          "removed": false
        }
      ],
      "logsBloom": "0x00000000000000000000000000000000000000000000000000000000000000000000000040000000000000000000000000000000000000000000000000000000001000000000000000000000000000000000000000000000000000000000000000000000000000000000000000000000000000000000000000000000000000040000000000000000000000000000000000000000000000000000000000000000000000000000000000000000100000000000000000000000000000000000000000000004000000000000000000000000000000000000000000000000000000000000000000000000000000000000000000000100000000000000000000000000",
      "type": "0x2",
      "transactionHash": "0x2d349eab55ee96b68cce52541f59a4f64820983f8c6c9ffe5f4b5dde8582e318",
      "transactionIndex": "0x1",
      "blockHash": "0x97b08bc9d494bf5c822d12e64dc7c9c39c1d477e429876f9a35cc2cbc20d7f2e",
      "blockNumber": "0xa",
      "gasUsed": "0x760d",
      "effectiveGasPrice": "0x15001910",
      "blobGasPrice": "0x1",
      "from": "0xf39fd6e51aad88f6f4ce6ab8827279cfffb92266",
      "to": "0x0165878a594ca255338adfa4d48449f69242eb8f",
      "contractAddress": null
    }
  ],
  "libraries": [],
  "pending": [],
  "returns": {},
  "timestamp": 1757968932,
  "chain": 31337,
  "commit": "4c1f4ab"
}