{
  "transactions": [
    {
      "hash": "0xa076259c07f4a4f4e60fa01b735fbc753cfe5a94a0d7f22e2e791d68b8adc156",
      "transactionType": "CALL",
      "contractName": null,
      "contractAddress": "0x0165878a594ca255338adfa4d48449f69242eb8f",
      "function": "transfer(address,uint256)",
      "arguments": [
        "0x70997970C51812dc3A010C7d01b50e0d17dc79C8",
        "1000000000000000000000"
      ],
      "transaction": {
        "from": "0xf39fd6e51aad88f6f4ce6ab8827279cfffb92266",
        "to": "0x0165878a594ca255338adfa4d48449f69242eb8f",
        "gas": "0xbd15",
        "value": "0x0",
        "input": "0xa9059cbb00000000000000000000000070997970c51812dc3a010c7d01b50e0d17dc79c800000000000000000000000000000000000000000000003635c9adc5dea00000",
        "nonce": "0x16",
        "chainId": "0x7a69"
      },
      "additionalContracts": [],
      "isFixedGasLimit": false
    },
    {
      "hash": "0x370b1d132ffe92f8b2a5a4e73fab63abf55ea125804fb8a62e21f7be18648aa0",
      "transactionType": "CALL",
      "contractName": null,
      "contractAddress": "0x610178da211fef7d417bc0e6fed39f05609ad788",
      "function": "grantRole(bytes32,address)",
      "arguments": [
        "0x97667070c54ef182b0f5858b034beac1b6f3089aa2d3188bb1e8929f4fa9b929",
        "0xf39Fd6e51aad88F6F4ce6aB8827279cffFb92266"
      ],
      "transaction": {
        "from": "0xf39fd6e51aad88f6f4ce6ab8827279cfffb92266",
        "to": "0x610178da211fef7d417bc0e6fed39f05609ad788",
        "gas": "0xa076",
        "value": "0x0",
        "input": "0x2f2ff15d97667070c54ef182b0f5858b034beac1b6f3089aa2d3188bb1e8929f4fa9b929000000000000000000000000f39fd6e51aad88f6f4ce6ab8827279cfffb92266",
        "nonce": "0x17",
        "chainId": "0x7a69"
      },
      "additionalContracts": [],
      "isFixedGasLimit": false
    },
    {
      "hash": "0x63eb38c381a91b345f2090f24e9de492a6bfe2ef1da1dc90b907c6a8cfffa83b",
      "transactionType": "CALL",
      "contractName": null,
      "contractAddress": "0x610178da211fef7d417bc0e6fed39f05609ad788",
      "function": "grantRole(bytes32,address)",
      "arguments": [
        "0x9f2df0fed2c77648de5860a4cc508cd0818c85b8b8a1ab4ceeef8d981c8956a6",
        "0xf39Fd6e51aad88F6F4ce6aB8827279cffFb92266"
      ],
      "transaction": {
        "from": "0xf39fd6e51aad88f6f4ce6ab8827279cfffb92266",
        "to": "0x610178da211fef7d417bc0e6fed39f05609ad788",
        "gas": "0xa076",
        "value": "0x0",
        "input": "0x2f2ff15d9f2df0fed2c77648de5860a4cc508cd0818c85b8b8a1ab4ceeef8d981c8956a6000000000000000000000000f39fd6e51aad88f6f4ce6ab8827279cfffb92266",
        "nonce": "0x18",
        "chainId": "0x7a69"
      },
      "additionalContracts": [],
      "isFixedGasLimit": false
    },
    {
      "hash": "0xcbc2fa56a1e26b2d47b93581e7c5ab627b18c6da3e24b1a569e345e6e55f7023",
      "transactionType": "CALL",
      "contractName": null,
      "contractAddress": "0x610178da211fef7d417bc0e6fed39f05609ad788",
      "function": "setWhitelist(address,bool)",
      "arguments": [
        "0xf39Fd6e51aad88F6F4ce6aB8827279cffFb92266",
        "true"
      ],
      "transaction": {
        "from": "0xf39fd6e51aad88f6f4ce6ab8827279cfffb92266",
        "to": "0x610178da211fef7d417bc0e6fed39f05609ad788",
        "gas": "0x9ae5",
        "value": "0x0",
        "input": "0x53d6fd59000000000000000000000000f39fd6e51aad88f6f4ce6ab8827279cfffb922660000000000000000000000000000000000000000000000000000000000000001",
        "nonce": "0x19",
        "chainId": "0x7a69"
      },
      "additionalContracts": [],
      "isFixedGasLimit": false
    },
    {
      "hash": "0xb6f8040779fe3e7b805aeeb60db53dcb60b5f63bdaa2624299f76b2587d63928",
      "transactionType": "CALL",
      "contractName": null,
      "contractAddress": "0x610178da211fef7d417bc0e6fed39f05609ad788",
      "function": "mint(address,uint256)",
      "arguments": [
        "0xf39Fd6e51aad88F6F4ce6aB8827279cffFb92266",
        "500000000000000000000"
      ],
      "transaction": {
        "from": "0xf39fd6e51aad88f6f4ce6ab8827279cfffb92266",
        "to": "0x610178da211fef7d417bc0e6fed39f05609ad788",
        "gas": "0x319c5",
        "value": "0x0",
        "input": "0x40c10f19000000000000000000000000f39fd6e51aad88f6f4ce6ab8827279cfffb9226600000000000000000000000000000000000000000000001b1ae4d6e2ef500000",
        "nonce": "0x1a",
        "chainId": "0x7a69"
      },
      "additionalContracts": [],
      "isFixedGasLimit": false
    },
    {
      "hash": "0xe7eb36cdedcb38c8509955b80409ba3b290c8ff09718d8f24d1ddeddf0969c93",
      "transactionType": "CALL",
      "contractName": null,
      "contractAddress": "0x0165878a594ca255338adfa4d48449f69242eb8f",
      "function": "burn(uint256)",
      "arguments": [
        "200000000000000000000"
      ],
      "transaction": {
        "from": "0xf39fd6e51aad88f6f4ce6ab8827279cfffb92266",
        "to": "0x0165878a594ca255338adfa4d48449f69242eb8f",
        "gas": "0xc0ed",
        "value": "0x0",
        "input": "0x42966c6800000000000000000000000000000000000000000000000ad78ebc5ac6200000",
        "nonce": "0x1b",
        "chainId": "0x7a69"
      },
      "additionalContracts": [],
      "isFixedGasLimit": false
    },
    {
      "hash": "0xb5c219d5eaf31544b4858118fde2bb43a5df88bae17458df421b375f88163ac2",
      "transactionType": "CALL",
      "contractName": null,
      "contractAddress": "0x2279b7a0a67db372996a5fab50d91eaa73d2ebe6",
      "function": "setPrice(uint256)",
      "arguments": [
        "105000000"
      ],
      "transaction": {
        "from": "0xf39fd6e51aad88f6f4ce6ab8827279cfffb92266",
        "to": "0x2279b7a0a67db372996a5fab50d91eaa73d2ebe6",
        "gas": "0xa14a",
        "value": "0x0",
        "input": "0x91b7f5ed0000000000000000000000000000000000000000000000000000000006422c40",
        "nonce": "0x1c",
        "chainId": "0x7a69"
      },
      "additionalContracts": [],
      "isFixedGasLimit": false
    },
    {
      "hash": "0x999946d2d9f9f3c81d3a7cf6b6f4e61b6f93ed9c2ceb1c85d6b69e3142f3e916",
      "transactionType": "CALL",
      "contractName": null,
      "contractAddress": "0x2279b7a0a67db372996a5fab50d91eaa73d2ebe6",
      "function": "setPrice(uint256)",
      "arguments": [
        "100000000"
      ],
      "transaction": {
        "from": "0xf39fd6e51aad88f6f4ce6ab8827279cfffb92266",
        "to": "0x2279b7a0a67db372996a5fab50d91eaa73d2ebe6",
        "gas": "0x9843",
        "value": "0x0",
        "input": "0x91b7f5ed0000000000000000000000000000000000000000000000000000000005f5e100",
        "nonce": "0x1d",
        "chainId": "0x7a69"
      },
      "additionalContracts": [],
      "isFixedGasLimit": false
    },
    {
      "hash": "0x0b96de24622a65ed860588910b8a65ef90975506c29d0c05f7b24e67472fb06d",
      "transactionType": "CALL",
      "contractName": null,
      "contractAddress": "0x0165878a594ca255338adfa4d48449f69242eb8f",
      "function": "toggleMinting()",
      "arguments": [],
      "transaction": {
        "from": "0xf39fd6e51aad88f6f4ce6ab8827279cfffb92266",
        "to": "0x0165878a594ca255338adfa4d48449f69242eb8f",
        "gas": "0xa30d",
        "value": "0x0",
        "input": "0x7d55094d",
        "nonce": "0x1e",
        "chainId": "0x7a69"
      },
      "additionalContracts": [],
      "isFixedGasLimit": false
    },
    {
      "hash": "0x49e527cfccf004eec0f1195d6a3c133c5f15f08ecb1e8c6e2c5f1496e41bc402",
      "transactionType": "CALL",
      "contractName": null,
      "contractAddress": "0x0165878a594ca255338adfa4d48449f69242eb8f",
      "function": "toggleMinting()",
      "arguments": [],
      "transaction": {
        "from": "0xf39fd6e51aad88f6f4ce6ab8827279cfffb92266",
        "to": "0x0165878a594ca255338adfa4d48449f69242eb8f",
        "gas": "0xa30d",
        "value": "0x0",
        "input": "0x7d55094d",
        "nonce": "0x1f",
        "chainId": "0x7a69"
      },
      "additionalContracts": [],
      "isFixedGasLimit": false
    }
  ],
  "receipts": [
    {
      "status": "0x1",
      "cumulativeGasUsed": "0x88e5",
      "logs": [
        {
          "address": "0x0165878a594ca255338adfa4d48449f69242eb8f",
          "topics": [
            "0xddf252ad1be2c89b69c2b068fc378daa952ba7f163c4a11628f55a4df523b3ef",
            "0x000000000000000000000000f39fd6e51aad88f6f4ce6ab8827279cfffb92266",
            "0x00000000000000000000000070997970c51812dc3a010c7d01b50e0d17dc79c8"
          ],
          "data": "0x00000000000000000000000000000000000000000000003635c9adc5dea00000",
          "blockHash": "0xfadbb9774b9142667321774c72acae86d22dbce1291cd886909ca8e6f6ec58a4",
          "blockNumber": "0xb",
          "blockTimestamp": "0x68c87a2a",
          "transactionHash": "0xa076259c07f4a4f4e60fa01b735fbc753cfe5a94a0d7f22e2e791d68b8adc156",
          "transactionIndex": "0x0",
          "logIndex": "0x0",
          "removed": false
        }
      ],
      "logsBloom": "0x00000000000000000002000000000000000000000000000000000000000000000000000000000000000000000000000000000000000000000000000000000000001000000000000000000008000000000000000000000000000000000000000000000800000000000000000100000000000000000000000000000010000000040000000000000000000000000000000000000000000000000000000000000000000000000000000000000000000000000000000000000000000000000000000000000006000000200000000000000000000000002000000000000000000000000000000000000000000000000000000001000000000000000000000000000000",
      "type": "0x2",
      "transactionHash": "0xa076259c07f4a4f4e60fa01b735fbc753cfe5a94a0d7f22e2e791d68b8adc156",
      "transactionIndex": "0x0",
      "blockHash": "0xfadbb9774b9142667321774c72acae86d22dbce1291cd886909ca8e6f6ec58a4",
      "blockNumber": "0xb",
      "gasUsed": "0x88e5",
      "effectiveGasPrice": "0x1262cb24",
      "blobGasPrice": "0x1",
      "from": "0xf39fd6e51aad88f6f4ce6ab8827279cfffb92266",
      "to": "0x0165878a594ca255338adfa4d48449f69242eb8f",
      "contractAddress": null
    },
    {
      "status": "0x1",
      "cumulativeGasUsed": "0x742d",
      "logs": [],
      "logsBloom": "0x00000000000000000000000000000000000000000000000000000000000000000000000000000000000000000000000000000000000000000000000000000000000000000000000000000000000000000000000000000000000000000000000000000000000000000000000000000000000000000000000000000000000000000000000000000000000000000000000000000000000000000000000000000000000000000000000000000000000000000000000000000000000000000000000000000000000000000000000000000000000000000000000000000000000000000000000000000000000000000000000000000000000000000000000000000000",
      "type": "0x2",
      "transactionHash": "0x370b1d132ffe92f8b2a5a4e73fab63abf55ea125804fb8a62e21f7be18648aa0",
      "transactionIndex": "0x0",
      "blockHash": "0x6641b436b86f8d95341ba6df439faaf6d576e06b38364edb2a2adcdad91905ab",
      "blockNumber": "0xc",
      "gasUsed": "0x742d",
      "effectiveGasPrice": "0x1017d1a5",
      "blobGasPrice": "0x1",
      "from": "0xf39fd6e51aad88f6f4ce6ab8827279cfffb92266",
      "to": "0x610178da211fef7d417bc0e6fed39f05609ad788",
      "contractAddress": null
    },
    {
      "status": "0x1",
      "cumulativeGasUsed": "0x742d",
      "logs": [],
      "logsBloom": "0x00000000000000000000000000000000000000000000000000000000000000000000000000000000000000000000000000000000000000000000000000000000000000000000000000000000000000000000000000000000000000000000000000000000000000000000000000000000000000000000000000000000000000000000000000000000000000000000000000000000000000000000000000000000000000000000000000000000000000000000000000000000000000000000000000000000000000000000000000000000000000000000000000000000000000000000000000000000000000000000000000000000000000000000000000000000",
      "type": "0x2",
      "transactionHash": "0x63eb38c381a91b345f2090f24e9de492a6bfe2ef1da1dc90b907c6a8cfffa83b",
      "transactionIndex": "0x0",
      "blockHash": "0xec903a8ad55c5a28c7f8b4764d297ab91229b9883de747454a1fc4eab7820c54",
      "blockNumber": "0xd",
      "gasUsed": "0x742d",
      "effectiveGasPrice": "0xe15dcd5",
      "blobGasPrice": "0x1",
      "from": "0xf39fd6e51aad88f6f4ce6ab8827279cfffb92266",
      "to": "0x610178da211fef7d417bc0e6fed39f05609ad788",
      "contractAddress": null
    },
    {
      "status": "0x1",
      "cumulativeGasUsed": "0x7025",
      "logs": [
        {
          "address": "0x610178da211fef7d417bc0e6fed39f05609ad788",
          "topics": [
            "0xf93f9a76c1bf3444d22400a00cb9fe990e6abe9dbb333fda48859cfee864543d",
            "0x000000000000000000000000f39fd6e51aad88f6f4ce6ab8827279cfffb92266"
          ],
          "data": "0x0000000000000000000000000000000000000000000000000000000000000001",
          "blockHash": "0x9fd091439413995285f544aae5d91495c2e06bd96727f37badc4d2498d36630d",
          "blockNumber": "0xe",
          "blockTimestamp": "0x68c87a2a",
          "transactionHash": "0xcbc2fa56a1e26b2d47b93581e7c5ab627b18c6da3e24b1a569e345e6e55f7023",
          "transactionIndex": "0x0",
          "logIndex": "0x0",
          "removed": false
        }
      ],
      "logsBloom": "0x00000000000000000000000000000000000000000000000000000000000000000000000000000400000000000000000000000000000000000000000000000000000000000000000000000000000000000000000000000000000000020000000000000001000000000000000100000000000000000000000040000000000000000000000000000000000000000000000000000000000000000000000000000000000000000000000000000000000000000000000000000000000000000000000000000000000000200000000000000000000000002000000000000000000000000000000000000000000000000000040000000000002000000000000000000000",
      "type": "0x2",
      "transactionHash": "0xcbc2fa56a1e26b2d47b93581e7c5ab627b18c6da3e24b1a569e345e6e55f7023",
      "transactionIndex": "0x0",
      "blockHash": "0x9fd091439413995285f544aae5d91495c2e06bd96727f37badc4d2498d36630d",
      "blockNumber": "0xe",
      "gasUsed": "0x7025",
      "effectiveGasPrice": "0xc540603",
      "blobGasPrice": "0x1",
      "from": "0xf39fd6e51aad88f6f4ce6ab8827279cfffb92266",
      "to": "0x610178da211fef7d417bc0e6fed39f05609ad788",
      "contractAddress": null
    },
    {
      "status": "0x1",
      "cumulativeGasUsed": "0x2b9c3",
      "logs": [
        {
          "address": "0x0165878a594ca255338adfa4d48449f69242eb8f",
          "topics": [
            "0xddf252ad1be2c89b69c2b068fc378daa952ba7f163c4a11628f55a4df523b3ef",
            "0x0000000000000000000000000000000000000000000000000000000000000000",
            "0x000000000000000000000000f39fd6e51aad88f6f4ce6ab8827279cfffb92266"
          ],
          "data": "0x00000000000000000000000000000000000000000000001b1061a8a65df44000",
          "blockHash": "0x9fd091439413995285f544aae5d91495c2e06bd96727f37badc4d2498d36630d",
          "blockNumber": "0xe",
          "blockTimestamp": "0x68c87a2a",
          "transactionHash": "0xb6f8040779fe3e7b805aeeb60db53dcb60b5f63bdaa2624299f76b2587d63928",
          "transactionIndex": "0x1",
          "logIndex": "0x1",
          "removed": false
        },
        {
          "address": "0x0165878a594ca255338adfa4d48449f69242eb8f",
          "topics": [
            "0x0f6798a560793a54c3bcfe86a93cde1e73087d944c0ea20544137d4121396885",
            "0x000000000000000000000000f39fd6e51aad88f6f4ce6ab8827279cfffb92266"
          ],
          "data": "0x00000000000000000000000000000000000000000000001b1061a8a65df44000",
          "blockHash": "0x9fd091439413995285f544aae5d91495c2e06bd96727f37badc4d2498d36630d",
          "blockNumber": "0xe",
          "blockTimestamp": "0x68c87a2a",
          "transactionHash": "0xb6f8040779fe3e7b805aeeb60db53dcb60b5f63bdaa2624299f76b2587d63928",
          "transactionIndex": "0x1",
          "logIndex": "0x2",
          "removed": false
        },
        {
          "address": "0x0165878a594ca255338adfa4d48449f69242eb8f",
          "topics": [
            "0xddf252ad1be2c89b69c2b068fc378daa952ba7f163c4a11628f55a4df523b3ef",
            "0x0000000000000000000000000000000000000000000000000000000000000000",
            "0x000000000000000000000000f39fd6e51aad88f6f4ce6ab8827279cfffb92266"
          ],
          "data": "0x0000000000000000000000000000000000000000000000000a832e3c915bc000",
          "blockHash": "0x9fd091439413995285f544aae5d91495c2e06bd96727f37badc4d2498d36630d",
          "blockNumber": "0xe",
          "blockTimestamp": "0x68c87a2a",
          "transactionHash": "0xb6f8040779fe3e7b805aeeb60db53dcb60b5f63bdaa2624299f76b2587d63928",
          "transactionIndex": "0x1",
          "logIndex": "0x3",
          "removed": false
        },
        {
          "address": "0x0165878a594ca255338adfa4d48449f69242eb8f",
          "topics": [
            "0x0f6798a560793a54c3bcfe86a93cde1e73087d944c0ea20544137d4121396885",
            "0x000000000000000000000000f39fd6e51aad88f6f4ce6ab8827279cfffb92266"
          ],
          "data": "0x0000000000000000000000000000000000000000000000000a832e3c915bc000",
          "blockHash": "0x9fd091439413995285f544aae5d91495c2e06bd96727f37badc4d2498d36630d",
          "blockNumber": "0xe",
          "blockTimestamp": "0x68c87a2a",
          "transactionHash": "0xb6f8040779fe3e7b805aeeb60db53dcb60b5f63bdaa2624299f76b2587d63928",
          "transactionIndex": "0x1",
          "logIndex": "0x4",
          "removed": false
        },
        {
          "address": "0x610178da211fef7d417bc0e6fed39f05609ad788",
          "topics": [
            "0x25b428dfde728ccfaddad7e29e4ac23c24ed7fd1a6e3e3f91894a9a073f5dfff",
            "0x000000000000000000000000f39fd6e51aad88f6f4ce6ab8827279cfffb92266"
          ],
          "data": "0x00000000000000000000000000000000000000000000001b1061a8a65df440000000000000000000000000000000000000000000000000000a832e3c915bc000",
          "blockHash": "0x9fd091439413995285f544aae5d91495c2e06bd96727f37badc4d2498d36630d",
          "blockNumber": "0xe",
          "blockTimestamp": "0x68c87a2a",
          "transactionHash": "0xb6f8040779fe3e7b805aeeb60db53dcb60b5f63bdaa2624299f76b2587d63928",
          "transactionIndex": "0x1",
          "logIndex": "0x5",
          "removed": false
        }
      ],
      "logsBloom": "0x00000000000000000000000000000000000000000000000000000000000000000000001000000400000000000000000000000000000000000000000000000000001000000020000000000008000000000000000000000000000000020000000000000000020000000000000100000800000000000000400040000010000000040000000000000000000000000000000000000000000000000000000000000000000080000000000000000000000000000000000000000000000000000000000000000006000000200000000000000000000000002000000000000000100020000000000000020000000000000000000000000000000000000000000000000000",
      "type": "0x2",
      "transactionHash": "0xb6f8040779fe3e7b805aeeb60db53dcb60b5f63bdaa2624299f76b2587d63928",
      "transactionIndex": "0x1",
      "blockHash": "0x9fd091439413995285f544aae5d91495c2e06bd96727f37badc4d2498d36630d",
      "blockNumber": "0xe",
      "gasUsed": "0x2499e",
      "effectiveGasPrice": "0xc540603",
      "blobGasPrice": "0x1",
      "from": "0xf39fd6e51aad88f6f4ce6ab8827279cfffb92266",
      "to": "0x610178da211fef7d417bc0e6fed39f05609ad788",
      "contractAddress": null
    },
    {
      "status": "0x1",
      "cumulativeGasUsed": "0x34571",
      "logs": [
        {
          "address": "0x0165878a594ca255338adfa4d48449f69242eb8f",
          "topics": [
            "0xddf252ad1be2c89b69c2b068fc378daa952ba7f163c4a11628f55a4df523b3ef",
            "0x000000000000000000000000f39fd6e51aad88f6f4ce6ab8827279cfffb92266",
            "0x0000000000000000000000000000000000000000000000000000000000000000"
          ],
          "data": "0x00000000000000000000000000000000000000000000000ad78ebc5ac6200000",
          "blockHash": "0x9fd091439413995285f544aae5d91495c2e06bd96727f37badc4d2498d36630d",
          "blockNumber": "0xe",
          "blockTimestamp": "0x68c87a2a",
          "transactionHash": "0xe7eb36cdedcb38c8509955b80409ba3b290c8ff09718d8f24d1ddeddf0969c93",
          "transactionIndex": "0x2",
          "logIndex": "0x6",
          "removed": false
        },
        {
          "address": "0x0165878a594ca255338adfa4d48449f69242eb8f",
          "topics": [
            "0xcc16f5dbb4873280815c1ee09dbd06736cffcc184412cf7a71a0fdb75d397ca5",
            "0x000000000000000000000000f39fd6e51aad88f6f4ce6ab8827279cfffb92266"
          ],
          "data": "0x00000000000000000000000000000000000000000000000ad78ebc5ac6200000",
          "blockHash": "0x9fd091439413995285f544aae5d91495c2e06bd96727f37badc4d2498d36630d",
          "blockNumber": "0xe",
          "blockTimestamp": "0x68c87a2a",
          "transactionHash": "0xe7eb36cdedcb38c8509955b80409ba3b290c8ff09718d8f24d1ddeddf0969c93",
          "transactionIndex": "0x2",
          "logIndex": "0x7",
          "removed": false
        }
      ],
      "logsBloom": "0x00000000000000000000000000000000000000000000001000000000000000000000000000000000000000000000000000000000000000000000000000000000001000000000000000000008000000000000000000000000000000000000000000000000020000000000000100000800080000000000000000000010000000040000000000000000000000000000000000000000000000000000000000200000000000000000000000000000000000000000000000000000000000000000000000000006000000200000000000000000000000002000000000000000000020000000000000000000000000000000000000000000000000000000000000000000",
      "type": "0x2",
      "transactionHash": "0xe7eb36cdedcb38c8509955b80409ba3b290c8ff09718d8f24d1ddeddf0969c93",
      "transactionIndex": "0x2",
      "blockHash": "0x9fd091439413995285f544aae5d91495c2e06bd96727f37badc4d2498d36630d",
      "blockNumber": "0xe",
      "gasUsed": "0x8bae",
      "effectiveGasPrice": "0xc540603",
      "blobGasPrice": "0x1",
      "from": "0xf39fd6e51aad88f6f4ce6ab8827279cfffb92266",
      "to": "0x0165878a594ca255338adfa4d48449f69242eb8f",
      "contractAddress": null
    },
    {
      "status": "0x1",
      "cumulativeGasUsed": "0x6e49",
      "logs": [
        {
          "address": "0x2279b7a0a67db372996a5fab50d91eaa73d2ebe6",
          "topics": [
            "0x945c1c4e99aa89f648fbfe3df471b916f719e16d960fcec0737d4d56bd696838"
          ],
          "data": "0x0000000000000000000000000000000000000000000000000000000005f5e1000000000000000000000000000000000000000000000000000000000006422c40",
          "blockHash": "0xb5ed7a1a7351a11321fc7b25bdc3dfeaf038d549300404c0fba3b88decbf321c",
          "blockNumber": "0xf",
          "blockTimestamp": "0x68c87a2a",
          "transactionHash": "0xb5c219d5eaf31544b4858118fde2bb43a5df88bae17458df421b375f88163ac2",
          "transactionIndex": "0x0",
          "logIndex": "0x0",
          "removed": false
        }
      ],
      "logsBloom": "0x00000000000000000000000000000000000000000000000000000000000000000000000000000000000000000000000000000000000000000000000000000000000000000000000000000000000000000000000000000000000000000000000000000000000000000000000000000000000000000000000000000000000000000000000000000000000000000000000040000000000040000000000000000000000000000000000000000000000040000000000002000000000000000000008000000000000000000000000000000000000000000000000000004000000000000000000000000000000000000000000000000000000000000000000000000000",
      "type": "0x2",
      "transactionHash": "0xb5c219d5eaf31544b4858118fde2bb43a5df88bae17458df421b375f88163ac2",
      "transactionIndex": "0x0",
      "blockHash": "0xb5ed7a1a7351a11321fc7b25bdc3dfeaf038d549300404c0fba3b88decbf321c",
      "blockNumber": "0xf",
      "gasUsed": "0x6e49",
      "effectiveGasPrice": "0xacf28af",
      "blobGasPrice": "0x1",
      "from": "0xf39fd6e51aad88f6f4ce6ab8827279cfffb92266",
      "to": "0x2279b7a0a67db372996a5fab50d91eaa73d2ebe6",
      "contractAddress": null
    },
    {
      "status": "0x1",
      "cumulativeGasUsed": "0x6e3d",
      "logs": [
        {
          "address": "0x2279b7a0a67db372996a5fab50d91eaa73d2ebe6",
          "topics": [
            "0x945c1c4e99aa89f648fbfe3df471b916f719e16d960fcec0737d4d56bd696838"
          ],
          "data": "0x0000000000000000000000000000000000000000000000000000000006422c400000000000000000000000000000000000000000000000000000000005f5e100",
          "blockHash": "0xebd8e6e8b8ddde12428437e67812c2d6a7077465a605f6996faf5941af226ba1",
          "blockNumber": "0x10",
          "blockTimestamp": "0x68c87a2a",
          "transactionHash": "0x999946d2d9f9f3c81d3a7cf6b6f4e61b6f93ed9c2ceb1c85d6b69e3142f3e916",
          "transactionIndex": "0x0",
          "logIndex": "0x0",
          "removed": false
        }
      ],
      "logsBloom": "0x00000000000000000000000000000000000000000000000000000000000000000000000000000000000000000000000000000000000000000000000000000000000000000000000000000000000000000000000000000000000000000000000000000000000000000000000000000000000000000000000000000000000000000000000000000000000000000000000040000000000040000000000000000000000000000000000000000000000040000000000002000000000000000000008000000000000000000000000000000000000000000000000000004000000000000000000000000000000000000000000000000000000000000000000000000000",
      "type": "0x2",
      "transactionHash": "0x999946d2d9f9f3c81d3a7cf6b6f4e61b6f93ed9c2ceb1c85d6b69e3142f3e916",
      "transactionIndex": "0x0",
      "blockHash": "0xebd8e6e8b8ddde12428437e67812c2d6a7077465a605f6996faf5941af226ba1",
      "blockNumber": "0x10",
      "gasUsed": "0x6e3d",
      "effectiveGasPrice": "0x975ea45",
      "blobGasPrice": "0x1",
      "from": "0xf39fd6e51aad88f6f4ce6ab8827279cfffb92266",
      "to": "0x2279b7a0a67db372996a5fab50d91eaa73d2ebe6",
      "contractAddress": null
    },
    {
      "status": "0x1",
      "cumulativeGasUsed": "0xe44a",
      "logs": [
        {
          "address": "0x0165878a594ca255338adfa4d48449f69242eb8f",
          "topics": [
            "0x5708b32f825aa2f1192da18d8205d00f2cb633e72d1c5bb33a3111ccc61be8f4"
          ],
          "data": "0x0000000000000000000000000000000000000000000000000000000000000001",
          "blockHash": "0xebd8e6e8b8ddde12428437e67812c2d6a7077465a605f6996faf5941af226ba1",
          "blockNumber": "0x10",
          "blockTimestamp": "0x68c87a2a",
          "transactionHash": "0x0b96de24622a65ed860588910b8a65ef90975506c29d0c05f7b24e67472fb06d",
          "transactionIndex": "0x1",
          "logIndex": "0x1",
          "removed": false
        }
      ],
      "logsBloom": "0x00000000000000000000000000000000000000000000000000000000000000000000000040000000000000000000000000000000000000000000000000000000001000000000000000000000000000000000000000000000000000000000000000000000000000000000000000000000000000000000000000000000000000040000000000000000000000000000000000000000000000000000000000000000000000000000000000000000100000000000000000000000000000000000000000000004000000000000000000000000000000000000000000000000000000000000000000000000000000000000000000000100000000000000000000000000",
      "type": "0x2",
      "transactionHash": "0x0b96de24622a65ed860588910b8a65ef90975506c29d0c05f7b24e67472fb06d",
      "transactionIndex": "0x1",
      "blockHash": "0xebd8e6e8b8ddde12428437e67812c2d6a7077465a605f6996faf5941af226ba1",
      "blockNumber": "0x10",
      "gasUsed": "0x760d",
      "effectiveGasPrice": "0x975ea45",
      "blobGasPrice": "0x1",
      "from": "0xf39fd6e51aad88f6f4ce6ab8827279cfffb92266",
      "to": "0x0165878a594ca255338adfa4d48449f69242eb8f",
      "contractAddress": null
    },
    {
      "status": "0x1",
      "cumulativeGasUsed": "0x760d",
      "logs": [
        {
          "address": "0x0165878a594ca255338adfa4d48449f69242eb8f",
          "topics": [
            "0x5708b32f825aa2f1192da18d8205d00f2cb633e72d1c5bb33a3111ccc61be8f4"
          ],
          "data": "0x0000000000000000000000000000000000000000000000000000000000000000",
          "blockHash": "0x84afbac7fea310beb13e74e1ce3e580289970846db6a4c9a3c8324aa239012a0",
          "blockNumber": "0x11",
          "blockTimestamp": "0x68c87a2a",
          "transactionHash": "0x49e527cfccf004eec0f1195d6a3c133c5f15f08ecb1e8c6e2c5f1496e41bc402",
          "transactionIndex": "0x0",
          "logIndex": "0x0",
          "removed": false
        }
      ],
      "logsBloom": "0x00000000000000000000000000000000000000000000000000000000000000000000000040000000000000000000000000000000000000000000000000000000001000000000000000000000000000000000000000000000000000000000000000000000000000000000000000000000000000000000000000000000000000040000000000000000000000000000000000000000000000000000000000000000000000000000000000000000100000000000000000000000000000000000000000000004000000000000000000000000000000000000000000000000000000000000000000000000000000000000000000000100000000000000000000000000",
      "type": "0x2",
      "transactionHash": "0x49e527cfccf004eec0f1195d6a3c133c5f15f08ecb1e8c6e2c5f1496e41bc402",
      "transactionIndex": "0x0",
      "blockHash": "0x84afbac7fea310beb13e74e1ce3e580289970846db6a4c9a3c8324aa239012a0",
      "blockNumber": "0x11",
      "gasUsed": "0x760d",
      "effectiveGasPrice": "0x8485af2",
      "blobGasPrice": "0x1",
      "from": "0xf39fd6e51aad88f6f4ce6ab8827279cfffb92266",
      "to": "0x0165878a594ca255338adfa4d48449f69242eb8f",
      "contractAddress": null
    }
  ],
  "libraries": [],
  "pending": [],
  "returns": {},
  "timestamp": 1757968938,
  "chain": 31337,
  "commit": "4c1f4ab"
}